:020000040800F2
:1000000000000520910B0008C90A0008CB0A00086F
:10001000CD0A0008CF0A0008D10A0008000000003D
:10002000000000000000000000000000D30A0008EB
:10003000D50A000800000000D70A0008D90A000805
:10004000E10B0008E10B0008E10B0008E10B0008E0
:10005000E10B0008E10B0008E10B0008E10B0008D0
:10006000E10B0008E10B0008E10B0008E10B0008C0
:10007000E10B0008E10B0008E10B0008E10B0008B0
:10008000E10B0008E10B0008E10B0008E10B0008A0
:10009000E10B0008E10B0008E10B0008E10B000890
:1000A000E10B0008E10B0008E10B0008E10B000880
:1000B000E10B0008E10B0008E10B0008E10B000870
:1000C000E10B0008E10B0008E10B0008E10B000860
:1000D000E10B0008E10B0008E10B0008E10B000850
:1000E000E10B0008E10B0008E10B0008E10B000840
:1000F000E10B0008E10B0008E10B0008E10B000830
:10010000E10B0008E10B0008E10B0008E10B00081F
:10011000E10B0008E10B0008DD0A0008E10B000814
:10012000E10B0008E10B0008E10B0008E10B0008FF
:10013000E10B0008E10B0008E10B0008E10B0008EF
:10014000E10B0008E10B0008E10B0008E10B0008DF
:10015000E10B0008E10B0008E10B0008E10B0008CF
:10016000E10B0008E10B0008E10B0008E10B0008BF
:10017000E10B0008E10B0008E10B000800000000A3
:10018000E10B0008E10B0008E10B0008E10B00089F
:10019000E10B0008E10B0008E10B0008E10B00088F
:1001A000E10B0008E10B0008E10B0008E10B00087F
:0401B000E10B000857
:1001B40053B94AB9002908BF00281CBF4FF0FF31CA
:1001C4004FF0FF3000F00CB8ADF1080C6DE904CE2F
:1001D40001F01AFEDDF804E0DDE9022304B0704703
:1001E400704700BF0348044B834202D0034B03B162
:1001F4001847704710000020100000200000000085
:100204000548064B1B1AD90F01EBA301491002D074
:10021400034B03B118477047100000201000002062
:100224000000000010B5064C237843B9FFF7DAFF4D
:10023400044B13B10448AFF300800123237010BDB5
:1002440010000020000000009422000808B5054BAF
:100254001BB105490548AFF30080BDE80840FFF72E
:10026400CFBF00BF0000000014000020942200084B
:1002740008B50548054B036000F042FD00B908BD10
:1002840000F0C8FAFBE700BF2C0000200030024059
:100294000268094B9A4200D0704782B00023019350
:1002A400064B1A6B42F480521A631B6B03F480539F
:1002B4000193019B02B070470030024000380240B5
:1002C4002DE9F04186B00023019302930393049334
:1002D4000593334B1B6813B106B0BDE8F0814FF0B2
:1002E40001082F4BC3F80080002600962D4B9A6B13
:1002F40042EA08029A639B6B03EA08030093009B9B
:100304004FF68373019302270297032504950C2467
:10031400059401A9244800F003FD48F23313019326
:10032400029703960495059401A9204800F0F8FC6F
:100334004CF203730193029703960495059401A963
:100344001B4800F0EDFC40F2FF6301930297039613
:100354000495059401A9174800F0E2FC4FF63F0309
:100364000193029703960495059401A9124800F09D
:10037400D7FC4FF60C7301930297039604950594EA
:1003840001A90E4800F0CCFCCDF804800297039636
:100394000495059401A90A4800F0C2FC9CE700BF3B
:1003A40034000020003802400010024000180240CF
:1003B400000C02400020024000140240001C0240D5
:1003C4000008024000B589B000230193029303930F
:1003D40004930593069307931448154A02604360F7
:1003E40083600421C16020220261402242614FF4F3
:1003F400C0728261C3614FF4006202624FF48052A2
:1004040042628362022301930722029203910492BF
:100414000322059206930793694401F0A9F910B9E0
:1004240009B05DF804FB00F0F5F9F9E738000020A5
:10043400400100A008B5FFF743FF08BD2DE9F04FC8
:1004440091B000240B940C940D940E940F9400948A
:10045400B24B1A6B42F010021A631A6B02F01002CC
:100464000092009A01941A6B42F040021A631A6BCC
:1004740002F040020192019A02941A6B42F00202C5
:100484001A631A6B02F002020292029A03941A6B24
:1004940042F004021A631A6B02F004020392039AF4
:1004A40004941A6B42F001021A631A6B02F00102FF
:1004B4000492049A05941A6B42F008021A631A6BA8
:1004C40002F008020592059A06941A6B42F48072AF
:1004D4001A631A6B02F480720692069A07941A6BD6
:1004E40042F020021A631A6B02F020020792079A64
:1004F40008941A6B42F480621A631A6B02F48062E5
:100504000892089A09941A6B42F080021A631A6BD3
:1005140002F080020992099A0A941A6B42F400725A
:100524001A631B6B03F400730A930A9B7C4E2246E6
:100534000C21304600F0FAFCDFF8E8A12246302115
:10054400504600F0F3FC22460821774800F0EEFC08
:10055400DFF8D8B122464021584600F0E7FCDFF826
:10056400D08122460521404600F0E0FC224680214D
:10057400704800F0DBFC224608216F4800F0D6FCEE
:1005840030230B9302250C950D940E9406230F93A0
:100594000BAA1146304600F0C3FB0C220B92012734
:1005A4000C970D940E940BA9304600F0B9FB4FF450
:1005B40084430B930C950D9403260E9608220F92F8
:1005C4000BA9584600F0ACFB4FF440730B934FF06B
:1005D400120CCDF830C00D970E964FF00409CDF8EB
:1005E4003C900DF12C0E7146404600F099FB082218
:1005F4000B920C950D940E9406230F930DF12C0E73
:100604007146404600F08CFB4FF4F8530B930C9565
:100614000D940E960C200F900DF12C0E7146474848
:1006240000F07EFB4FF0800CCDF82CC04FF4881EF8
:10063400CDF830E00D940BA9404600F071FB402149
:100644000B910C950D940E9406230F930BA8014661
:10065400504600F065FB4FF4E0530B930C950D945A
:100664000E960A230F930BA80146334800F058FB5B
:1006740030210B914FF0110ECDF830E00D940E9413
:100684000BA80146504600F04BFB08220B924FF09A
:10069400110ECDF830E00D940E940BA801462248BB
:1006A40000F03EFBCDF82C900C950D940E960C208A
:1006B4000F900BA80146504600F032FB4FF4007334
:1006C4000B930C950D940BA801461B4800F028FBD6
:1006D40030210B9112210C910D970E96CDF83C9080
:1006E4000BA80146134800F01BFB4FF0800CCDF81B
:1006F4002CC00C950D940E9406230F930BAB194646
:10070400584600F00DFB40210B914FF0110ECDF82F
:1007140030E00D940E940BA9584611E000380240C5
:1007240000100240000C0240002802400018024061
:1007340000040240001C0240000002400008024085
:1007440000F0EEFA05230B930C970D940E940BA96D
:10075400404600F0E5FA4FF400530B930C950D94CA
:100764000E940F950BA9504600F0DAFACDF82C90B0
:100774000C940D940BA9584600F0D2FA20230B9345
:100784004FF4881ECDF830E00D940AF5C05A0BA939
:10079400504600F0C5FA4FF0800CCDF82CC00C97F1
:1007A4000D940E940BA9134800F0BAFACDF82C90CE
:1007B4000C950D940E960D230F930BA9504600F043
:1007C400AFFA4FF440630B930C950D970E960723E5
:1007D4000F930BA9404600F0A3FA08220B920C9742
:1007E4000D940E940BA9044800F09AFA11B0BDE8D8
:1007F400F08F00BF001C02400000024008B50268F0
:10080400034B9A4200D008BD00F004FAFBE700BF96
:100814000010004072B6FEE700B595B03422002106
:1008240007A801F04FFC002302930393049305935C
:1008340006930093234A116C41F080511164126CA9
:1008440002F080520092009A01931F4B1A6842F4FE
:1008540040421A601B6803F440430193019B012347
:1008640007934FF48033089302230D934FF48002CF
:100874000E9204220F92B422109211930623129323
:10088400139307A800F06CFDB0B900F055FBA8B9AC
:100894000F23029302230393002304934FF4A053E2
:1008A40005934FF480530693052102A800F074FCCD
:1008B40030B915B05DF804FBFFF7ACFFFFF7AAFFF2
:1008C400FFF7A8FF003802400070004008B500F0B0
:1008D40087F9FFF7A1FFFFF7B1FDFFF7C9FCFFF7A9
:1008E40071FD00F003F800F001F9FEE708B50C48CB
:1008F4000C4B03600123436083601023C3601823FF
:1009040003614FF48063436100238361C361036225
:1009140000F07CFB00B908BDFFF77CFFFBE700BFDC
:100924006C000020001000A02DE9F04188B00023E5
:10093400039304930593069307930268264B9A4204
:1009440002D008B0BDE8F08100240094234B9A6BD8
:1009540042F002029A639A6B02F002020092009A39
:1009640001941A6B42F002021A631A6B02F002023B
:100974000192019A02941A6B42F020021A631B6BD3
:1009840003F020030293029B402303930226049660
:10099400032506954FF00A08CDF81C8003A91048DA
:1009A40000F0BEF94FF498630393049605940695FA
:1009B400092307930B4F03A9384600F0B1F94FF40C
:1009C40040730393049605940695CDF81C8003A9FF
:1009D400384600F0A5F9B4E7001000A00038024042
:1009E400000402400014024082B0002100910B4B2D
:1009F4005A6C42F480425A645A6C02F48042009267
:100A0400009A01911A6C42F080521A641B6C03F034
:100A140080530193019B02B0704700BF003802402D
:100A240030B589B0044600230193214B1A6C42F07F
:100A340010021A641B6C03F010030193019B02A9BA
:100A440003A800F06FFC069BCBB900F05BFC0346E7
:100A5400184AA2FB03239B0C013B1748174A026068
:100A640040F2E732C2604360002303618360836124
:100A740001F036F8054630B1284609B030BD00F023
:100A840041FC4300E4E70C4800F0C0FE05460028A2
:100A9400F2D1362000F026F90F2C01D90125EBE71D
:100AA40000222146362000F00DF9054B1C60E3E7D7
:100AB4000038024083DE1B43B800002000100040D1
:100AC40008000020FEE7FEE7FEE7FEE7FEE77047CA
:100AD400704770477047000008B5024800F0DEFE1A
:100AE40008BD00BFB80000207047000000B587B003
:100AF40000230293039304930593009301931548F1
:100B0400154A0260436083604FF6FF72C26003615E
:100B14004361836100F0E4FF90B94FF48053029382
:100B240002A90C4801F014F868B90023009301935A
:100B34006946084801F08CF840B907B05DF804FB39
:100B4400FFF768FEE9E7FFF765FEEEE7FFF762FEF1
:100B5400F3E700BF00010020000001400268094BD8
:100B64009A4200D0704782B000230193064B5A6C1E
:100B740042F001025A645B6C03F001030193019B90
:100B840002B070470000014000380240DFF834D062
:100B94000D480E490E4A002302E0D458C4500433D1
:100BA400C4188C42F9D30B4A0B4C002301E01360A8
:100BB4000432A242FBD3FFF797FF01F0D5FAFFF707
:100BC40085FE704700000520000000201000002072
:100BD400D822000810000020E4020020FEE70000F4
:100BE40008B50B4B1A6842F400721A601A6842F492
:100BF40080621A601A6842F480721A60032000F05E
:100C04004FF80F20FFF70CFFFFF7EEFE002008BDA2
:100C1400003C0240034A1168034B1B780B441360E9
:100C2400704700BF4801002004000020014B1868F1
:100C3400704700BF48010020002808DB0901C9B241
:100C440000F1604000F5614080F80013704700F047
:100C54000F000901C9B2014B1954704714ED00E0AB
:100C640000B500F00700C0F1070CBCF1040F28BF69
:100C74004FF0040C031D062B0FD9C31E4FF0FF3E8B
:100C84000EFA0CF021EA000199400EFA03FE22EA62
:100C94000E0241EA02005DF804FB0023EEE70000C7
:100CA400074AD36823F4E0631B041B0C000200F41E
:100CB400E060034343F0BF6343F40033D360704701
:100CC40000ED00E010B50446054BD868C0F30220DF
:100CD400FFF7C6FF01462046FFF7AEFF10BD00BF79
:100CE40000ED00E0002807DB00F01F0240090123AB
:100CF4009340024A42F82030704700BF00E100E010
:100D040058B110B5044643791BB101236371002027
:100D140010BD0371FFF7BCFAF7E70120704700002C
:100D240000230F2B00F2F98030B583B069E08568A9
:100D34004FEA430E032404FA0EF425EA0405CC68B2
:100D440004FA0EF42C438460446824EA02044A68DA
:100D5400C2F300129A402243426060E0DC08083487
:100D640050F8242003F00705AD004FF00F0E0EFAE3
:100D740005FE22EA0E0E0A69AA4042EA0E0240F873
:100D8400242060E0092200E0002202FA0EF22A4345
:100D94000234624D45F82420614A94686FEA0C02DB
:100DA40024EA0C05D1F804E01EF4801F01D04CEABB
:100DB40004055B4CA560E46802EA0405D1F804E08C
:100DC4001EF4001F01D04CEA0405554CE56064682C
:100DD40002EA0405D1F804E01EF4003F01D04CEA15
:100DE40004054F4C6560246822404D6815F4803F2B
:100DF40001D04CEA04024A4C226001330F2B00F26A
:100E04008A8001229A400C6804EA020C32EA040443
:100E1400F3D14C6804F00304013C012C87D94A68DF
:100E240002F00302032A09D0C4685D000322AA4029
:100E340024EA02048A68AA402243C2604A6802F093
:100E44000302022A8AD004684FEA430E032202FAFC
:100E54000EF224EA02044A6802F0030202FA0EF2D5
:100E6400224302604A6812F4403FC6D00022019235
:100E74002C4A546C44F480445464526C02F480420E
:100E84000192019A9C08A51C244A52F8255003F0AB
:100E9400030E4FEA8E0E0F2202FA0EF225EA020525
:100EA400214A90423FF470AF02F58062904222D012
:100EB40002F58062904220D002F5806290421ED0FA
:100EC40002F5806290421CD002F5806290421AD0F2
:100ED40002F58062904218D002F58062904216D0EA
:100EE40002F58062904214D002F5806290423FF491
:100EF40049AF0A2249E7012247E7022245E70322D4
:100F040043E7042241E705223FE706223DE70722A3
:100F14003BE7082239E703B030BD70470038014091
:100F2400003C014000380240000002400AB18161E7
:100F3400704709048161704710B582B000230193A2
:100F4400194B1A6C42F080521A641B6C03F08053E4
:100F54000193019B154B01221A64FFF767FE0446B7
:100F6400134B5B6813F4803F08D1FFF75FFE001B4F
:100F7400B0F57A7FF4D9032002B010BD0B4B0122E7
:100F84005A64FFF753FE0446094B5B6813F4003FB1
:100F940007D1FFF74BFE001BB0F57A7FF4D903208D
:100FA400EAE70020E8E700BF0038024000000E42F4
:100FB400007000402DE9F84305460F461646994651
:100FC400DDF820802C68A4683C4214BF4FF0010C6B
:100FD4004FF0000CB44514D0B8F1FF3FF2D0FFF746
:100FE40025FEA0EB0900404502D8B8F1000FE9D175
:100FF400042385F841306B6C43F001036B640120DA
:1010040000E00020BDE8F8838164704770B582B0C9
:101014000446FFF70BFE002C4CD0064694F84130F2
:10102400002B3CD025682A6822F4F852A1680139C3
:1010340042EA01222A60A36C009333460022202155
:101044002046FFF7B7FF28BB21680B6823F07F43D6
:1010540023F0D0036568E26842EA0562E5692A4341
:10106400256A2A4313430B6021684A68124B1340D4
:101074002569626942EA0542A5692A4313434B6024
:101084002268136843F0010313600023636401239F
:1010940084F84130002384F8403002B070BD84F8F5
:1010A40040302046FFF740FC41F288312046FFF7EC
:1010B400ABFFB7E70120F0E7FEF8E0FF08B5334BDC
:1010C4009B6803F00C03042B5BD0082B5BD12F4BE4
:1010D4005A6802F03F025B6813F4800F2CD02B4B4C
:1010E4005868C0F388104FEA401CBCEB000C6EEB50
:1010F4000E0E4FEA8E1343EA9C634FEA8C11B1EB58
:101104000C0163EB0E03DB0043EA5173C90011EBDE
:10111400000C43F10003590200234FEA4C2041EA3A
:10112400DC51FFF745F8194B5B68C3F30143013306
:101134005B00B0FBF3F027E0144B5868C0F3881051
:101144004FEA401CBCEB000C6EEB0E0E4FEA8E1304
:1011540043EA9C634FEA8C11B1EB0C0163EB0E0381
:10116400DB0043EA5173C90011EB000C43F10003A7
:10117400990200234FEA8C2041EA9C51FFF718F8AA
:10118400D1E7034800E0034808BD00BF003802402F
:1011940000127A000024F400002800F09B8070B54F
:1011A4000D4604464F4B1B6803F00F038B4208D2D5
:1011B400CBB24C4A1370136803F00F038B4240F018
:1011C4008B80236813F0020F17D013F0040F04D0A0
:1011D400454A936843F4E0539360236813F0080F7F
:1011E40004D0414A936843F4604393603E4A936851
:1011F40023F0F003A1680B439360236813F0010FFD
:1012040032D06368012B21D09A1E012A25D9364A8F
:10121400126812F0020F61D033498A6822F0030287
:1012240013438B60FFF702FD06462F4B9B6803F0C8
:101234000C036268B3EB820F16D0FFF7F7FC801B38
:1012440041F288339842F0D9032042E0264A1268DA
:1012540012F4003FE0D101203BE0234A126812F06F
:10126400007FD9D1012034E01E4B1B6803F00F032B
:10127400AB4207D9EAB21B4B1A701B6803F00F0389
:10128400AB422DD1236813F0040F06D0164A93689D
:1012940023F4E053E1680B439360236813F0080FD1
:1012A40007D0114A936823F46043216943EAC103D8
:1012B4009360FFF703FF0C4B9B68C3F303130B4AC4
:1012C400D35CD8400A4B18600A4B1868FFF7A8FB98
:1012D400002070BD012070470120FAE70120F8E7E3
:1012E4000120F6E7003C024000380240B422000826
:1012F4000000002008000020014B1868704700BF60
:101304000000002008B5FFF7F7FF044B9B68C3F308
:101314008223034AD35CD84008BD00BF0038024092
:10132400AC2200080F2303600B4B9A6802F00302FF
:1013340042609A6802F0F00282609A6802F4E05215
:10134400C2609B68DB0803F4E0530361034B1B6832
:1013540003F00F030B60704700380240003C02406A
:10136400002800F0E98170B582B00446036813F0E8
:10137400010F3BD09F4B9B6803F00C03042B2CD034
:101384009C4B9B6803F00C03082B21D06368B3F5D6
:10139400803F4FD0B3F5A02F52D0964B1A6822F459
:1013A40080321A601A6822F480221A606368002B63
:1013B40050D0FFF73BFC05468E4B1B6813F4003FEF
:1013C40014D1FFF733FC401B6428F5D90320BAE19C
:1013D400884B5B6813F4800FD8D0864B1B6813F4DA
:1013E400003F03D06368002B00F0A881236813F04A
:1013F400020F54D07F4B9B6813F00C0F3ED07D4BF3
:101404009B6803F00C03082B33D0E368002B68D0EF
:10141400794B01221A60FFF709FC0546754B1B68DE
:1014240013F0020F54D1FFF701FC401B0228F5D939
:10143400032088E16F4A136843F480331360B5E7EF
:101444006C4B1A6842F480221A601A6842F48032A3
:101454001A60ABE7FFF7EAFB0546664B1B6813F41B
:10146400003FC3D0FFF7E2FB401B6428F5D90320FB
:1014740069E1604B5B6813F4800FC6D15D4B1B6858
:1014840013F0020F03D0E368012B40F05981594A4D
:10149400136823F0F803216943EAC1031360236846
:1014A40013F0080F42D063696BB3534B0122C3F8A6
:1014B400802EFFF7BBFB05464E4B5B6F13F0020F0C
:1014C40034D1FFF7B3FB401B0228F5D903203AE1DE
:1014D400484A136823F0F803216943EAC1031360FF
:1014E400DDE7454B00221A60FFF7A0FB0546414BA0
:1014F4001B6813F0020FD2D0FFF798FB401B0228A1
:10150400F5D903201FE13C4B0022C3F8802EFFF7DE
:101514008DFB0546374B5B6F13F0020F06D0FFF7C8
:1015240085FB401B0228F5D903200CE1236813F046
:10153400040F77D02F4B1B6C13F0805F33D1002343
:1015440001932C4B1A6C42F080521A641B6C03F00A
:1015540080530193019B0125284B1B6813F4807F62
:1015640023D0A368012B34D0052B38D0214B1A6F1C
:1015740022F001021A671A6F22F004021A67A368A4
:10158400002B3DD0FFF752FB06461A4B1B6F13F09E
:10159400020F46D1FFF74AFB801B41F28833984281
:1015A400F3D90320CFE00025D6E7144A136843F4A7
:1015B40080731360FFF73AFB0646104B1B6813F465
:1015C400807FCED1FFF732FB801B0228F5D90320A0
:1015D400B9E0084A136F43F001031367CFE7054BE3
:1015E4001A6F42F004021A671A6F42F001021A6776
:1015F400C5E700BF003802400000474200700040C9
:10160400FFF714FB0646584B1B6F13F0020F08D06C
:10161400FFF70CFB801B41F288339842F3D9032077
:1016240091E0EDB9A369002B00F08C804E4A9268DA
:1016340002F00C02082A54D0022B17D04B4B002284
:101644001A66FFF7F3FA0446474B1B6813F0007F52
:1016540045D0FFF7EBFA001B0228F5D9032072E00E
:10166400414A136C23F080531364DBE73F4B0022A1
:101674001A66FFF7DBFA05463B4B1B6813F0007F45
:1016840006D0FFF7D3FA401B0228F5D903205AE00D
:10169400E369226A1343626A43EA8213A26A520824
:1016A400013A43EA0243E26A43EA0263226B43EAF1
:1016B40002732D4A53602D4B01221A66FFF7B6FAC6
:1016C4000446294B1B6813F0007F06D1FFF7AEFADE
:1016D400001B0228F5D9032035E0002033E0002068
:1016E40031E0012B31D0204B5B6803F48001E269C7
:1016F40091422CD103F03F02216A8A4229D1616AC6
:1017040047F6C0721A40B2EB811F24D103F4403172
:10171400A26A5208013AB1EB024F1ED103F0706283
:10172400E16AB2EB016F1AD103F0E043226BB3EB31
:10173400027F16D1002006E001207047012002E05C
:10174400012000E0002002B070BD0120FBE7012071
:10175400F9E70120F7E70120F5E70120F3E701208D
:10176400F1E70120EFE700BF0038024000004742E4
:10177400E0B138B50D46044690F82C308BB1022305
:1017840084F82C30214651F8040B00F0A9FA626861
:101794002946206800F0DFFA012384F82C30002069
:1017A40038BD80F82D30FEF745FEE8E7012070478C
:1017B40010B4036A046A24F001040462846924F006
:1017C400F00C4CEA021223F00A030B438261036219
:1017D40010BC704710B4036A23F0100303628469D9
:1017E400036A24F4704C4CEA023223F0A00343EA67
:1017F40001138261036210BC7047836823F0700395
:101804000B4343F0070383607047000090F83D30BA
:10181400DBB2012B37D1022380F83D300268D36854
:1018240043F00103D3600368194A934220D0B3F113
:10183400804F1DD0A2F57C42934219D002F58062FC
:10184400934215D002F58062934211D002F578429A
:1018540093420DD002F57052934209D0A2F594320E
:10186400934205D01A6842F001021A6000207047C2
:101874009A6802F00702062A07D01A6842F00102A9
:101884001A6000207047012070470020704700BF95
:1018940000000140704770477047704710B5044618
:1018A40003681A6912F0020F11D0DA6812F0020FFD
:1018B4000DD06FF002021A610123037703689B695C
:1018C40013F0030F70D0FFF7E6FF0023237723689C
:1018D4001A6912F0040F12D0DA6812F0040F0ED055
:1018E4006FF004021A610223237723689B6913F4BF
:1018F400407F5FD02046FFF7CEFF00232377236885
:101904001A6912F0080F12D0DA6812F0080F0ED01C
:101914006FF008021A61042323772368DB6913F04C
:10192400030F4ED02046FFF7B6FF0023237723682A
:101934001A6912F0100F12D0DA6812F0100F0ED0DC
:101944006FF010021A61082323772368DB6913F40C
:10195400407F3DD02046FFF79EFF00232377236876
:101964001A6912F0010F03D0DA6812F0010F36D1B0
:1019740023681A6912F0800F03D0DA6812F0800F1E
:1019840034D123681A6912F0400F03D0DA6812F0D8
:10199400400F32D123681A6912F0200F03D0DA689D
:1019A40012F0200F30D110BDFFF774FF2046FFF76F
:1019B40073FF8AE72046FFF76DFF2046FFF76CFFB1
:1019C4009BE72046FFF766FF2046FFF765FFACE77D
:1019D4002046FFF75FFF2046FFF75EFFBDE76FF08D
:1019E40001021A612046FEF709FFC1E76FF0800289
:1019F4001A61204600F073F9C3E76FF040021A61E0
:101A04002046FFF74AFFC5E76FF020021A6120461F
:101A140000F064F9C7E700000368304A904212D02E
:101A2400B0F1804F0FD0A2F57C4290420BD002F56A
:101A34008062904207D002F58062904203D002F5A2
:101A44007842904203D123F070034A681343234A37
:101A540090422AD0B0F1804F27D0A2F57C42904228
:101A640023D002F5806290421FD002F5806290423A
:101A74001BD002F57842904217D002F57052904282
:101A840013D002F5806290420FD002F5806290423A
:101A94000BD0A2F59832904207D002F580629042B2
:101AA40003D002F58062904203D123F44073CA68E4
:101AB400134323F080034A69134303608B68C362B2
:101AC4000B688362054B984203D003F58063984208
:101AD40001D10B6903630123436170470000014096
:101AE40040B310B5044690F83D30F3B1022384F8B6
:101AF4003D30214651F8040BFFF78EFF012384F893
:101B0400463084F83E3084F83F3084F8403084F81E
:101B1400413084F8423084F8433084F8443084F807
:101B2400453084F83D30002010BD80F83C30FFF78C
:101B340015F8DBE70120704710B4846824F47F4C67
:101B440042EA03220A4342EA0C02826010BC704754
:101B540090F83C30012B78D010B50446012380F86E
:101B64003C30022380F83D300268936823F47F43BD
:101B740023F0770393600B68602B4CD029D8402B5B
:101B840054D00CD9502B22D1CA6849680068FFF799
:101B94000FFE50212068FFF730FE002005E0202BC7
:101BA4000DD009D9302B0AD00120012384F83D300F
:101BB400002384F83C3010BD0BB1102B05D119461D
:101BC4002068FFF71AFE0020EFE70120EDE701206F
:101BD400EBE7B3F5805F34D0B3F5005F0CD1CB688D
:101BE4004A6889680068FFF7A7FF2268936843F48E
:101BF400804393600020D8E7702B24D1CB684A68D7
:101C040089680068FFF798FF2268936843F07703B8
:101C140093600020C9E7CA6849680068FFF7DAFDE5
:101C240060212068FFF7E9FD0020BEE7CA68496823
:101C34000068FFF7BDFD40212068FFF7DEFD0020AE
:101C4400B3E70020B1E70120AFE7022070470000AE
:101C540090F83C20012A3CD010B40346012280F8BD
:101C64003C20022280F83D2002685068946820F0ED
:101C7400700C086840EA0C0050601A6816488242EA
:101C84001AD0B2F1804F17D0A0F57C40824213D015
:101C940000F5806082420FD000F5806082420BD054
:101CA40000F57840824207D000F57050824203D09C
:101CB400A0F59430824204D124F080044968214381
:101CC4009160012283F83D20002083F83C0010BC81
:101CD40070470220704700BF000001407047704702
:101CE40010B40B68D3B9026822F4FF4222F07F02D9
:101CF4004B688C682343CC6823430C6923434C69A9
:101D040023438C692343CC6923430C6A2343496AE4
:101D14000B431A430260002010BC7047036823F48D
:101D2400F843CA690C6A22434C6A22431343036092
:101D3400426822F4FF4222F07F024B688C682343FE
:101D4400CC6823430C6923434C69234389690B43BF
:101D54001A434260DFE752BB826802F070420B68AC
:101D6400013BD1F804C00CF1FF3C43EA0C13D1F859
:101D740008C00CF1FF3C43EA0C23D1F80CC00CF171
:101D8400FF3C43EA0C33D1F810C00CF1FF3C43EAAA
:101D94000C43D1F814C00CF1FF3C43EA0C5389699D
:101DA400013943EA01631343836000207047836869
:101DB40023F4700323F47043CA6802F1FF3C4A69B8
:101DC400013A120542EA0C3213438360C26802F0FE
:101DD40070420B68013BD1F804C00CF1FF3C43EAAC
:101DE4000C13D1F808C00CF1FF3C43EA0C23D1F8E2
:101DF40010C00CF1FF3C43EA0C438969013943EA02
:101E040001631343C360D0E72DE9F047089D0C46F6
:101E1400002B4ED194468C458646B2FA82F262D9A2
:101E24004AB1C2F12003914020FA03F30CFA02FCF8
:101E3400194300FA02FE4FEA1C471FFA8CF6B1FB65
:101E4400F7F44FEA1E4307FB141143EA014304FB72
:101E540006F199420AD91CEB030304F1FF3080F028
:101E64001381994240F21081023C6344591A1FFACB
:101E74008EF3B1FBF7F007FB101143EA014300FBBB
:101E840006F69E420AD91CEB030300F1FF3180F0F1
:101E9400FD809E4240F2FA80634402389B1B40EA74
:101EA400044000211DB1D3400022C5E90032BDE841
:101EB400F0878B4205D90DB1C5E900010021084620
:101EC400F5E7B3FA83F1002946D1A34202D3904245
:101ED400C0F0F180861A64EB03030120002DE6D0E4
:101EE400C5E90063E3E7002A40F09180A1EB0C040C
:101EF4004FEA1C481FFA8CF70121B4FBF8F64FEAAD
:101F04001E4308FB164443EA044307FB06F09842C9
:101F140008D91CEB030306F1FF3402D2984200F205
:101F2400CE8026461C1A1FFA8EF3B4FBF8F008FB89
:101F3400104443EA044300FB07F79F4208D91CEB13
:101F4400030300F1FF3402D29F4200F2B180204625
:101F5400DB1B40EA0640A5E7C1F120068B4022FACC
:101F640006F71F4320FA06FC04FA01F343EA0C03C4
:101F7400F44000FA01F8380C4FEA1349B4FBF0FEC0
:101F84001FFA87FC00FB1E4449EA04440EFB0CF9CB
:101F9400A14502FA01F20AD93C190EF1FF3A80F088
:101FA4008580A14540F28280AEF1020E3C44A4EB50
:101FB40009041FFA83F9B4FBF0F300FB134449EA64
:101FC400044403FB0CFCA44507D93C1903F1FF307E
:101FD40068D2A44566D9023B3C4443EA0E40A0FBC8
:101FE4000293A4EB0C049C42CE469C4652D34FD0A1
:101FF40055B1B8EB0E0364EB0C0404FA06F6CB40BF
:10200400CC401E43C5E900640021BDE8F087C2F15D
:10201400200320FA03F10CFA02FC24FA03F394409F
:102024000C434FEA1C4800FA02FE1FFA8CF7B3FB7C
:10203400F8F008FB1031230C43EA014300FB07F1DD
:10204400994208D91CEB030300F1FF362CD29942C4
:102054002AD9023863445B1AA4B2B3FBF8F108FB33
:10206400113344EA034401FB07F3A34208D91CEBF0
:10207400040401F1FF3613D2A34211D90239644496
:10208400E41A41EA004138E70446EFE6084605E76A
:10209400C845ADD2B9EB020E63EB070C0138A7E7D4
:1020A4003146EDE7034698E73046D4E7D6467EE767
:1020B400634402384CE70646234608460EE7023ED0
:1020C40063442FE7830730B547D0541E002A3ED01F
:1020D400CAB2034601E0013C39D303F8012B9D0742
:1020E400F9D1032C2CD9CDB205EB05250F2C05EB2A
:1020F400054535D9A4F1100222F00F0C03F1100E9E
:10210400E6444FEA121C1A46156055609560D56086
:1021140010327245F8D10CF1010214F00C0F03EBEC
:10212400021204F00F0C13D0ACF1040323F00303E8
:102134000433134442F8045B9A42FBD10CF00304C9
:102144002CB1C9B21C4403F8011B9C42FBD130BD25
:1021540064461346002CF4D1F9E703461446C0E75D
:102164001A46A446E0E700BF70B50F4B0F4DAB42D3
:10217400A3EB050607D0B610002455F8043B013440
:102184009847A642F9D800F083F8094D094B5E1B25
:10219400AB424FEAA60606D0002455F8043B0134AE
:1021A4009847A642F9D870BDCC220008CC2200087A
:1021B400CC220008D4220008704700BF704700BF3B
:1021C400024B13B1024800F005B87047000000004C
:1021D400E5210008002301461A46184600F014B809
:1021E40038B5074D074C2C1BA41005D0013C55F8FD
:1021F400043D9847002CF9D1BDE8384000F04EB8B2
:10220400D8220008D42200082DE9F047DFF874A092
:102214000646DAF8000098460F469146FFF7CCFFD1
:10222400194B1C6824B365681F2D24DC5EB96B1C34
:102234000235DAF80000636044F82570FFF7BEFF4A
:102244000020BDE8F08704EB85010123C1F88890E4
:10225400D4F88821AB401A43022EC4F88821C1F86F
:102264000881E4D1D4F88C211A43C4F88C21DEE728
:10227400064C1C60D7E7DAF80000FFF79FFF4FF029
:10228400FF30DEE70C000020500100205401002044
:10229400F8B500BFF8BC08BC9E467047F8B500BF4F
:0822A400F8BC08BC9E4670471F
:1022AC000000000001020304000000000000000018
:0822BC000102030406070809F2
:0822C40048FBFF7F0100000050
:0822CC00C521000851020008C1
:0422D40029020008D3
:1022D8000024F40001000000100000004C01002060
:0400000508000B9153
:00000001FF
